:03000000020003F8
:0C000300787FE4F6D8FD75812602004AE3
:1001E80009090801020304050709AA091400000007
:0F01F8000000000000000113A00112000108091F
:10022100D29100D2920000000000C29100000000B3
:0602310000C29200002251
:10024C00C291000000D2920000000000D291000088
:03025C000000227D
:10023700C291000000D2920000000000C2920000AC
:0502470000D29100222D
:10025F00D291000000D2920000000000C292000074
:02026F0000226B
:0602080012022112019D0B
:10020E00D291000000D292C2000000209102D200D2
:03021E00C2922267
:10019D00E4FEEFA806088002C333D8FC30E704D292
:1001AD00918002C29100D2920000000000C2920024
:0801BD00000000000EBE08DA8C
:0101C5002217
:1001C600E4FFD291FE00D2920000000000EF25E08D
:1001D600FF3091010F000000C2920000000EBE0821
:0101E600E434
:0101E70022F5
:0200FC00AE074D
:1000FE00120208200002C322AF0512019D12020E49
:10010E00200002C322E4FDEDC395265019120172A0
:10011E00FF12019D12020E200002C322740129F962
:10012E00E43AFA0D80E112024C000000000000D308
:01013E00229E
:06008F008B238A24892561
:10009500120208200002C322AF0512019D200002B2
:1000A500C3227F107E271202711202217FA1120145
:1000B5009D12020E200002C322E4FDE52614FFED89
:1000C500C39F501E1201C6AB23AA24A925EF120116
:1000D5008B12023774012525F525E43524F5240D09
:1000E50080D91201C6AB23AA24A925EF12018B12D0
:0600F500025F12024CD371
:0100FB0022E2
:0B027100EF1FAC0670011E4C70F6225F
:10013F00E4F5A0C2907F2C7E011202717B007A0041
:10014F007909850826AD12AF131200FC7FE87E03F4
:10015F001202717A007914850826AD12AF131200BE
:03016F008F80FE80
:10000F0002013FE493A3F8E493A34003F68001F2C7
:10001F0008DFF48029E493A3F85407240CC8C333F2
:10002F00C4540F4420C8834004F456800146F6DFC1
:10003F00E4800B01020408102040809001E8E47E68
:10004F00019360BCA3FF543F30E509541FFEE493B6
:10005F00A360010ECF54C025E060A840B8E493A37D
:10006F00FAE493A3F8E493A3C8C582C8CAC583CAA8
:10007F00F0A3C8C582C8CAC583CADFE9DEE780BE60
:0102070000F6
:10017200BB010689828A83E0225002E722BBFE028B
:09018200E32289828A83E49322BE
:10018B00BB010689828A83F0225002F722BBFE0153
:02019B00F3224D
:00000001FF
