:03000000020003F8
:0C000300787FE4F6D8FD75812C02004ADD
:1001B80009090801020304050709AA091400000037
:0F01C8000000000000000113A00112000108094F
:1001F300D29100D2920000000000C29100000000E2
:0602030000C2920000227F
:10021E00C291000000D2920000000000D2910000B6
:03022E00000022AB
:10020900C291000000D2920000000000C2920000DA
:0502190000D29100225B
:10023100D291000000D2920000000000C2920000A2
:02024100002299
:0801D800AE071201F312014B06
:1001E000D291000000D292C2000000209102D20001
:0301F000C2922296
:10014B00E4FEEFA806088002C333D8FC30E704D2E4
:10015B00918002C29100D2920000000000C2920076
:08016B00000000000EBE08DADE
:010173002269
:10017400E4FFD291FE00D2920000000000EF25E0DF
:10018400FF3091010F000000C2920000000EBE0873
:01019400E486
:010195002247
:1000DF001201D8200002C322AF0512014B1201E01A
:1000EF00200002C322E4FDEDC3952C50191201200C
:1000FF00FF12014B1201E0200002C322740129F903
:10010F00E43AFA0D80E112021E000000000000D355
:01011F0022BD
:10008F001201D8200002C322AF0512014B2000023B
:10009F00C3221201F37FA112014B1201E0200002D3
:1000AF00C322E4FDE52614FFEDC39F501412017423
:1000BF00EF120139120209740129F9E43AFA0D809D
:0F00CF00E3120174EF12013912023112021ED333
:0100DE0022FF
:0B024300EF1FAC0670011E4C70F6228D
:10019600C2907F2C7E011202437B007A007909858A
:1001A600082CAD12AF131200DF7FE87E0312024364
:0201B60080FEC9
:10000F00020196E493A3F8E493A34003F68001F270
:10001F0008DFF48029E493A3F85407240CC8C333F2
:10002F00C4540F4420C8834004F456800146F6DFC1
:10003F00E4800B01020408102040809001B8E47E98
:10004F00019360BCA3FF543F30E509541FFEE493B6
:10005F00A360010ECF54C025E060A840B8E493A37D
:10006F00FAE493A3F8E493A3C8C582C8CAC583CAA8
:10007F00F0A3C8C582C8CAC583CADFE9DEE780BE60
:0101D7000027
:10012000BB010689828A83E0225002E722BBFE02DD
:09013000E32289828A83E4932210
:10013900BB010689828A83F0225002F722BBFE01A5
:02014900F3229F
:00000001FF
